:100000000C942A000C9449000C9447000C9447006F
:100010000C9447000C9447000C9447000C94470044
:100020000C9447000C9447000C9447000C94470034
:100030000C9447000C9447000C9447000C94470024
:100040000C9447000C9447000C9447000C94470014
:100050000C94470011241FBECFE5D8E0DEBFCDBF12
:1000600010E0A0E6B0E0E4E3F1E002C005900D92FC
:10007000AA36B107D9F710E0AAE6B0E001C01D9298
:10008000AB36B107E1F70E9460000C9498000C9425
:1000900000001F920F920FB60F9211248F93809140
:1000A0006A008F5F80936A0080916A008A3010F046
:1000B00010926A008F910F900FBE0F901F901895AD
:1000C000DF93CF93CDB7DEB72A970FB6F894DEBF94
:1000D0000FBECDBF8FEF87BB8A9885B7836085BF82
:1000E0008BB780648BBFDE011196E0E6F0E08AE01A
:1000F00001900D928150E1F77894AE014F5F5F4F10
:1001000020E23EE480916A00FA01E80FF11D80814F
:1001100088BBC9010197F1F7F5CF8FEF87BB8A98AC
:10012000089585B7836085BF8BB780648BBF0895C2
:04013000F894FFCF71
:0A0134003F065B4F666D7D077F6F8D
:00000001FF
